{
  "contractName": "ExchangeLicEth",
  "abi": [
    {
      "inputs": [
        {
          "internalType": "contract LibertyCoin",
          "name": "_token",
          "type": "address"
        }
      ],
      "payable": false,
      "stateMutability": "nonpayable",
      "type": "constructor"
    },
    {
      "anonymous": false,
      "inputs": [
        {
          "indexed": false,
          "internalType": "address",
          "name": "account",
          "type": "address"
        },
        {
          "indexed": false,
          "internalType": "address",
          "name": "token",
          "type": "address"
        },
        {
          "indexed": false,
          "internalType": "uint256",
          "name": "amount",
          "type": "uint256"
        },
        {
          "indexed": false,
          "internalType": "uint256",
          "name": "rate",
          "type": "uint256"
        }
      ],
      "name": "TokenPurchased",
      "type": "event"
    },
    {
      "anonymous": false,
      "inputs": [
        {
          "indexed": false,
          "internalType": "address",
          "name": "account",
          "type": "address"
        },
        {
          "indexed": false,
          "internalType": "address",
          "name": "token",
          "type": "address"
        },
        {
          "indexed": false,
          "internalType": "uint256",
          "name": "amount",
          "type": "uint256"
        },
        {
          "indexed": false,
          "internalType": "uint256",
          "name": "rate",
          "type": "uint256"
        }
      ],
      "name": "TokenSold",
      "type": "event"
    },
    {
      "constant": true,
      "inputs": [],
      "name": "name",
      "outputs": [
        {
          "internalType": "string",
          "name": "",
          "type": "string"
        }
      ],
      "payable": false,
      "stateMutability": "view",
      "type": "function"
    },
    {
      "constant": true,
      "inputs": [],
      "name": "rate",
      "outputs": [
        {
          "internalType": "uint256",
          "name": "",
          "type": "uint256"
        }
      ],
      "payable": false,
      "stateMutability": "view",
      "type": "function"
    },
    {
      "constant": true,
      "inputs": [],
      "name": "token",
      "outputs": [
        {
          "internalType": "contract LibertyCoin",
          "name": "",
          "type": "address"
        }
      ],
      "payable": false,
      "stateMutability": "view",
      "type": "function"
    },
    {
      "constant": false,
      "inputs": [],
      "name": "buyTokens",
      "outputs": [],
      "payable": true,
      "stateMutability": "payable",
      "type": "function"
    },
    {
      "constant": false,
      "inputs": [
        {
          "internalType": "uint256",
          "name": "_amount",
          "type": "uint256"
        }
      ],
      "name": "sellTokens",
      "outputs": [],
      "payable": false,
      "stateMutability": "nonpayable",
      "type": "function"
    },
    {
      "constant": false,
      "inputs": [
        {
          "internalType": "uint256",
          "name": "x",
          "type": "uint256"
        }
      ],
      "name": "setRate",
      "outputs": [],
      "payable": false,
      "stateMutability": "nonpayable",
      "type": "function"
    },
    {
      "constant": true,
      "inputs": [],
      "name": "getRate",
      "outputs": [
        {
          "internalType": "uint256",
          "name": "",
          "type": "uint256"
        }
      ],
      "payable": false,
      "stateMutability": "view",
      "type": "function"
    }
  ],
  "bytecode": "0x60806040526040518060400160405280600e81526020017f45786368616e67654c69634574680000000000000000000000000000000000008152506000908051906020019061004f9291906100db565b506002805534801561006057600080fd5b50604051610ab6380380610ab68339818101604052602081101561008357600080fd5b810190808051906020019092919050505080600160006101000a81548173ffffffffffffffffffffffffffffffffffffffff021916908373ffffffffffffffffffffffffffffffffffffffff16021790555050610180565b828054600181600116156101000203166002900490600052602060002090601f016020900481019282601f1061011c57805160ff191683800117855561014a565b8280016001018555821561014a579182015b8281111561014957825182559160200191906001019061012e565b5b509050610157919061015b565b5090565b61017d91905b80821115610179576000816000905550600101610161565b5090565b90565b6109278061018f6000396000f3fe6080604052600436106100705760003560e01c8063679aefce1161004e578063679aefce1461016b5780636c11bcd314610196578063d0febe4c146101d1578063fc0c546a146101db57610070565b806306fdde03146100755780632c4e722e1461010557806334fcf43714610130575b600080fd5b34801561008157600080fd5b5061008a610232565b6040518080602001828103825283818151815260200191508051906020019080838360005b838110156100ca5780820151818401526020810190506100af565b50505050905090810190601f1680156100f75780820380516001836020036101000a031916815260200191505b509250505060405180910390f35b34801561011157600080fd5b5061011a6102d0565b6040518082815260200191505060405180910390f35b34801561013c57600080fd5b506101696004803603602081101561015357600080fd5b81019080803590602001909291905050506102d6565b005b34801561017757600080fd5b506101806102ee565b6040518082815260200191505060405180910390f35b3480156101a257600080fd5b506101cf600480360360208110156101b957600080fd5b81019080803590602001909291905050506102f8565b005b6101d961062a565b005b3480156101e757600080fd5b506101f06108cc565b604051808273ffffffffffffffffffffffffffffffffffffffff1673ffffffffffffffffffffffffffffffffffffffff16815260200191505060405180910390f35b60008054600181600116156101000203166002900480601f0160208091040260200160405190810160405280929190818152602001828054600181600116156101000203166002900480156102c85780601f1061029d576101008083540402835291602001916102c8565b820191906000526020600020905b8154815290600101906020018083116102ab57829003601f168201915b505050505081565b60025481565b60018110156102e457600080fd5b8060028190555050565b6000600254905090565b80600160009054906101000a900473ffffffffffffffffffffffffffffffffffffffff1673ffffffffffffffffffffffffffffffffffffffff166370a08231336040518263ffffffff1660e01b8152600401808273ffffffffffffffffffffffffffffffffffffffff1673ffffffffffffffffffffffffffffffffffffffff16815260200191505060206040518083038186803b15801561039857600080fd5b505afa1580156103ac573d6000803e3d6000fd5b505050506040513d60208110156103c257600080fd5b810190808051906020019092919050505010156103de57600080fd5b600060025482816103eb57fe5b049050804710156103fb57600080fd5b600160009054906101000a900473ffffffffffffffffffffffffffffffffffffffff1673ffffffffffffffffffffffffffffffffffffffff166323b872dd3330856040518463ffffffff1660e01b8152600401808473ffffffffffffffffffffffffffffffffffffffff1673ffffffffffffffffffffffffffffffffffffffff1681526020018373ffffffffffffffffffffffffffffffffffffffff1673ffffffffffffffffffffffffffffffffffffffff1681526020018281526020019350505050602060405180830381600087803b1580156104d857600080fd5b505af11580156104ec573d6000803e3d6000fd5b505050506040513d602081101561050257600080fd5b8101908080519060200190929190505050503373ffffffffffffffffffffffffffffffffffffffff166108fc829081150290604051600060405180830381858888f1935050505015801561055a573d6000803e3d6000fd5b507fa8a7473f10e62cf9687e243de1c3ac8b3cbc3dd04b96826beb3a65b59538581433600160009054906101000a900473ffffffffffffffffffffffffffffffffffffffff1684600254604051808573ffffffffffffffffffffffffffffffffffffffff1673ffffffffffffffffffffffffffffffffffffffff1681526020018473ffffffffffffffffffffffffffffffffffffffff1673ffffffffffffffffffffffffffffffffffffffff16815260200183815260200182815260200194505050505060405180910390a15050565b60006002543402905080600160009054906101000a900473ffffffffffffffffffffffffffffffffffffffff1673ffffffffffffffffffffffffffffffffffffffff166370a08231306040518263ffffffff1660e01b8152600401808273ffffffffffffffffffffffffffffffffffffffff1673ffffffffffffffffffffffffffffffffffffffff16815260200191505060206040518083038186803b1580156106d357600080fd5b505afa1580156106e7573d6000803e3d6000fd5b505050506040513d60208110156106fd57600080fd5b8101908080519060200190929190505050101561071957600080fd5b600160009054906101000a900473ffffffffffffffffffffffffffffffffffffffff1673ffffffffffffffffffffffffffffffffffffffff1663a9059cbb33836040518363ffffffff1660e01b8152600401808373ffffffffffffffffffffffffffffffffffffffff1673ffffffffffffffffffffffffffffffffffffffff16815260200182815260200192505050602060405180830381600087803b1580156107c257600080fd5b505af11580156107d6573d6000803e3d6000fd5b505050506040513d60208110156107ec57600080fd5b8101908080519060200190929190505050507f8daf503382665d950e449b86172be5222275c90f4ddf69c29fdaa8237a562a6d33600160009054906101000a900473ffffffffffffffffffffffffffffffffffffffff1683600254604051808573ffffffffffffffffffffffffffffffffffffffff1673ffffffffffffffffffffffffffffffffffffffff1681526020018473ffffffffffffffffffffffffffffffffffffffff1673ffffffffffffffffffffffffffffffffffffffff16815260200183815260200182815260200194505050505060405180910390a150565b600160009054906101000a900473ffffffffffffffffffffffffffffffffffffffff168156fea265627a7a723158200291b3bcbd70e0d9ceed0c883f06f00a8f157156afa9208b4200c27de30bf37764736f6c63430005100032",
  "source": "// SPDX-License-Identifier: MIT\npragma solidity >=0.4.21 <0.7.0;\n\nimport './LibertyCoin.sol';\n\ncontract ExchangeLicEth {\n    \n    string public name = \"ExchangeLicEth\";\n    LibertyCoin public token;\n    uint public rate = 2;\n\n    event TokenPurchased (\n        address account,\n        address token,\n        uint amount,\n        uint rate\n    );\n\n    event TokenSold (\n        address account,\n        address token,\n        uint amount,\n        uint rate\n    );\n\n    constructor (LibertyCoin _token) public {\n        token = _token;\n    }\n\n    function buyTokens () public payable {\n        uint tokenAmount = msg.value * rate;\n\n        require(token.balanceOf(address(this)) >= tokenAmount);\n\n        token.transfer(msg.sender, tokenAmount);\n        \n        emit TokenPurchased(msg.sender, address(token), tokenAmount, rate);\n\n    }\n\n    function sellTokens (uint _amount) public {\n        require(token.balanceOf(msg.sender) >= _amount);\n        \n        uint etherAmount = _amount / rate;\n\n        require(address(this).balance >= etherAmount);\n\n        token.transferFrom(msg.sender, address(this), _amount);\n        msg.sender.transfer(etherAmount);\n\n        emit TokenSold(msg.sender, address(token), _amount, rate);\n    }\n\n    /**\n     * Overright default rate of value to exchange LIC for ETH\n     */\n    function setRate(uint x) public {\n        require(x >= 1);\n        rate = x;\n    }\n\n    function getRate() public view returns (uint) {\n        return rate;\n    }\n}",
  "sourcePath": "/home/moises/Documents/Dapp/truffle-react/contracts/ExchangeLicEth.sol",
  "compiler": {
    "name": "solc",
    "version": "0.5.16+commit.9c3226ce.Emscripten.clang"
  },
  "schemaVersion": "3.4.3",
  "updatedAt": "2021-10-22T14:27:16.096Z",
  "networkType": "ethereum",
  "devdoc": {
    "methods": {}
  },
  "userdoc": {
    "methods": {
      "setRate(uint256)": {
        "notice": "Overright default rate of value to exchange LIC for ETH"
      }
    }
  }
}